:020000040800F2
:1000000000800120B9C6000809C7000809C7000818
:1000100009C7000809C7000809C700080000000058
:10002000000000000000000000000000E191000856
:1000300009C7000800000000F1930008E1C20008B1
:1000400009C7000809C7000809C7000809C7000850
:1000500009C7000809C70008EDC2000809C7000861
:100060002DC300086DC30008ADC3000809C7000810
:1000700009C7000809C7000809C7000809C7000820
:1000800009C7000809C7000809C7000800000000E8
:1000900000000000000000000000000009C7000888
:1000A00009C7000809C7000809C7000809C70008F0
:1000B00009C7000809C70008EDC3000809C7000800
:1000C00009C7000809C7000809C7000809C70008D0
:1000D00009C7000809C7000809C700080000000098
:1000E00009C7000809C7000809C700080000000088
:1000F00000000000000000000000000009C7000828
:100100000000000009C7000809C7000809C7000867
:1001100000000000000000000000000000000000DF
:1001200009C7000809C7000809C7000809C700086F
:1001300009C70008000000000000000000000000E7
:1001400000000000000000000000000009C70008D7
:1001500009C7000809C7000809C7000809C700083F
:1001600009C7000809C700080000000000000000DF
:10017000000000000000000000000000000000007F
:100180000000000009C70008000000000000000097
:0401900009C7000893
:1001A00010B5054C237833B9044B13B10448AFF3B1
:1001B00000800123237010BDA0000020000000007B
:1001C000E4CF000808B5034B1BB103490348AFF364
:1001D000008008BD00000000A4000020E4CF00085B
:1001E000034613F8012B002AFBD1181A0138704777
:1001F00001F0FF01102A2BDB10F0070F08D010F8D8
:10020000013B013A8B422DD010F0070F42B3F6D1DB
:10021000F0B441EA012141EA014122F007047FF0F4
:1002200000070023F0E80256083C85EA010586EA4B
:10023000010685FA47F5A3FA87F586FA47F6A5FA87
:1002400087F68EB9EED1F0BC01F0FF0102F0070293
:1002500032B110F8013B013A83EA010313B1F8D13E
:100260000020704701387047002D06BF354603381F
:10027000073815F0010F07D1013015F4807F02BF58
:10028000013015F4C03F0130F0BC0138704700BFA9
:1002900053B94AB9002908BF00281CBF4FF0FF31ED
:1002A0004FF0FF3000F07AB9ADF1080C6DE904CEE3
:1002B00000F006F8DDF804E0DDE9022304B0704741
:1002C0002DE9F0478C460D460446089E002B51D17F
:1002D0008A4217466DD9B2FA82FEBEF1000F0BD0EA
:1002E000CEF1200C01FA0EF520FA0CFC02FA0EF702
:1002F0004CEA050C00FA0EF44FEA174A250CBCFB39
:10030000FAF81FFA87F90AFB18CC45EA0C4508FBF6
:1003100009F3AB420AD9ED1908F1FF3280F02381CD
:10032000AB4240F22081A8F102083D44ED1AA4B28C
:10033000B5FBFAF00AFB105544EA054400FB09F945
:10034000A14509D9E41900F1FF3380F00A81A145E4
:1003500040F2078102383C44A4EB090440EA08401B
:100360000021002E61D024FA0EF400233460736063
:10037000BDE8F0878B4207D9002E54D0002186E8D3
:1003800021000846BDE8F087B3FA83F1002940F068
:100390008E80AB4202D3824200F2FA80841A65EB6F
:1003A00003050120AC46002E3FD086E81010BDE8C2
:1003B000F08712B90127B7FBF2F7B7FA87FEBEF153
:1003C000000F34D1EB1B3A0C1FFA87FC0121B3FB61
:1003D000F2F8250C02FB183345EA03450CFB08F341
:1003E000AB4207D9ED1908F1FF3002D2AB4200F25F
:1003F000D1808046ED1AA3B2B5FBF2F002FB105596
:1004000043EA05440CFB00FCA44507D9E41900F1BC
:10041000FF3302D2A44500F2B8801846A4EB0C04C6
:1004200040EA08409DE731463046BDE8F087CEF10E
:10043000200405FA0EF307FA0EF720FA04F83A0C36
:1004400025FA04F448EA0308B4FBF2F14FEA184530
:1004500002FB11441FFA87FC45EA044501FB0CF33B
:10046000AB4200FA0EF409D9ED1901F1FF3080F02A
:100470008A80AB4240F2878002393D44EB1A1FFA72
:1004800088F5B3FBF2F002FB103345EA034500FBAD
:100490000CF3AB4207D9ED1900F1FF386FD2AB4234
:1004A0006DD902383D44EB1A40EA01418FE7C1F1B2
:1004B000200722FA07F88B4005FA01F448EA030303
:1004C00020FA07FE4FEA134CFD404EEA040EB5FB3E
:1004D000FCF94FEA1E440CFB19551FFA83F844EA55
:1004E000054509FB08F4AC4202FA01F200FA01FAF0
:1004F00008D9ED1809F1FF3043D2AC4241D9A9F136
:1005000002091D442D1B1FFA8EFEB5FBFCF00CFBEF
:1005100010554EEA054400FB08F8A04507D9E41839
:1005200000F1FF3529D2A04527D902381C4440EA02
:100530000940A4EB0804A0FB02894C45C6464D4681
:1005400015D312D056B1BAEB0E0364EB050404FACE
:1005500007F7CB401F43CC40376074600021BDE8F3
:10056000F0871846F8E69046E0E6C245EAD2B8EBD6
:10057000020E69EB03050138E4E72846D7E7404659
:1005800091E78146BEE7014678E702383C4445E7FB
:10059000084608E7A8F102083D442BE7704700BF72
:1005A00080B485B000AF78600B46FB70FB78032BFE
:1005B00016D801A252F823F0C9050008CF0500089B
:1005C000D5050008DB0500080023FB730DE00123BF
:1005D000FB730AE00223FB7307E00323FB7304E0D1
:1005E0000123FB737B68FC221A70FB7B18461437CF
:1005F000BD465DF8047B704780B584B000AF78607D
:100600000B46FB700023FB73FB785B08DBB21A46DA
:100610000121786805F09CFC0346FB7397F90F30C5
:1006200018461037BD4680BD80B584B000AF7860F5
:100630000023FB7397F90F30002B05D10121786857
:1006400001F020F90346FB7397F90F30002B07D117
:100650007B68012283F878237B68082283F87C2357
:100660000023BB7312E097F90F30002B12D1BB7B34
:100670009BB201221946786800F0F1FB03461A4646
:10068000FB7B1343FB73BB7B0133BB73BB7B012B36
:10069000E9D900E000BF97F90F30002B07D14FF4E4
:1006A00090120021786800F03BFC0346FB7397F939
:1006B0000F30002B07D14FF480420121786800F001
:1006C0002FFC0346FB7397F90F3018461037BD46D1
:1006D00080BD80B584B000AF78600023FB737B6879
:1006E000032283F878232023BB737B68BA7B9A703C
:1006F0007B68032283F87F237B68032283F87E23B1
:100700007B68032283F87D230821786800F0EDF8E8
:100710000346FB7397F90F3018461037BD4680BD6E
:1007200080B584B000AF78600023FB734FF4FA719A
:10073000786805F031FB0346FB7397F90F301846D4
:100740001037BD4680BD000080B487B000AF0346BF
:100750003A60FB710B46BB710023FB752C4A07F115
:1007600010031268114619800233120C1A70294ABC
:1007700007F10C031268114619800233120C1A702B
:10078000254A07F108031268114619800233120C3A
:100790001A703B6801221A70BB79012B02D0022B20
:1007A00003D005E00023BB7504E00123BB7501E025
:1007B0000223BB75FB79042B04D0082B14D0032B28
:1007C00009D01AE0BB7D07F11802134413F8082C76
:1007D0003B681A7013E0BB7D07F11802134413F84D
:1007E0000C2C3B681A700AE0BB7D07F11802134419
:1007F00013F8102C3B681A7001E0F823FB7597F989
:10080000173018461C37BD465DF8047B704700BFA3
:1008100028D000082CD0000830D00008B0B58EB029
:1008200004AFF8607B600B46FB721346BB7200237B
:1008300087F82730FB7A032B02D0FB7A082B03D1F1
:10084000402387F8263002E0202387F8263007F17E
:100850002502B97AFB7A1846FFF776FF034687F838
:10086000273097F92730002B12D197F8251007F180
:100870001C0007F1220207F11403019307F118038A
:1008800000930346F86801F0BDFA034687F8273065
:1008900097F92730002B12D197F825007C8CFD6941
:1008A000BB697A6979680291019200932B462246CE
:1008B0000146F86801F050FB034687F8273097F9A6
:1008C0002730002B03D1FB6897F826209A7097F900
:1008D0002730002B03D1FB68FA7A83F87C2397F941
:1008E000273018462837BD46B0BD80B584B000AF6C
:1008F00078600B46FB700023FB730323BB73BA7B4A
:10090000F9784FF47A737868FFF788FF0346FB7332
:1009100097F90F30002B1FD17B68BA7B83F87E23B9
:100920007B68BA7B83F87F23FB78042B05D0FB78A8
:10093000032B02D0FB78082B07D14AF228017868F4
:1009400000F0A2F80346FB7306E048F23521786810
:1009500000F09AF80346FB7397F90F30002B06D18D
:100960004FF47A71786800F00DFA0346FB7397F93B
:100970000F3018461037BD4680BD80B588B000AF37
:1009800078600B46FB700023FB777B6893F87C3321
:100990007B77FB78012B08D0FB78022B05D0FB7806
:1009A000032B02D06FF0030369E097F91F30002B8F
:1009B0000AD1FB78012B02D0FB78022B02D1FB7805
:1009C000BB7701E00323BB7797F91F30002B07D1DA
:1009D00007F108031946786801F0BDF90346FB7773
:1009E0007B685B69BB6197F91F30002B0AD107F167
:1009F000140307F1100207F10C01786801F0E6F822
:100A00000346FB7797F91F30002B07D1BA7F797F18
:100A1000BB697868FFF702FF0346FB7797F91F3041
:100A2000002B0BD17B68BA7F83F87E237B68BA7F6B
:100A300083F87F237B68FA7883F87D2397F91F304A
:100A4000002B0ED1F9683A697B69786801F086F865
:100A50000346FB7797F91F30002B02D17A697B6838
:100A60001A6197F91F30002B07D107F108031946C7
:100A7000786801F04DF90346FB7797F91F30184667
:100A80002037BD4680BD000080B58CB000AF7860D7
:100A90003960002387F82F30634BFB613B68634A62
:100AA000934202D9FC2387F82F3097F92F30002B7F
:100AB00009D107F11A031A460521786800F0C0FA37
:100AC000034687F82F3097F92F30002B09D107F113
:100AD00019031A460621786800F0B2FA034687F82F
:100AE0002F3097F92F30002B0BD107F1140307F1AA
:100AF000100207F10C01786801F068F8034687F8E6
:100B00002F3097F92F30002B7FD17B6893F87C33FF
:100B1000FB760023BB6201237B62FB7E042B04D0A7
:100B2000082B23D0032B0ED03FE0BB7E012B02D03D
:100B30007B7E012B03D141F28833BB6238E04FF456
:100B40007A73BB6234E0FB695B00FB61BB7E012B07
:100B500002D07B7E012B03D146F2E873BB6202E038
:100B600045F26043BB6202237B6221E0FB695B00CC
:100B7000FB61F5233B6207F108031A4648F2360190
:100B8000786802F01BF9BB68002B07DDBB68F52213
:100B900002FB03F31A463B6A13443B623B6A03F6CB
:100BA000DC53BB6202237B6202E0F82387F82F301C
:100BB0003A68BB6A9A4203D8FC2387F82F3003E0D7
:100BC0003A68BB6AD31A7B6197F92F30002B1CD18E
:100BD0007A69FB699A4203D9FC2387F82F300DE02C
:100BE0007A697B6AB2FBF3F37B61F9683A697B69E6
:100BF000786800F0B3FF034687F82F3097F92F305D
:100C0000002B02D17A697B681A6197F92F30002B8B
:100C100003D17B683A68C3F8802397F92F301846D0
:100C20003037BD4680BD00BF7064080080969800D4
:100C300080B58CB000AF78603960002387F82F3022
:100C40000023FB760023BB7600237B6100233B61FE
:100C50000023BB620023FB603B6800221A6097F907
:100C60002F30002B09D107F11B031A4605217868A4
:100C700000F0E6F9034687F82F3097F92F30002B64
:100C800009D107F11A031A460621786800F0D8F94D
:100C9000034687F82F3097F92F30002B0BD107F13F
:100CA000100307F1140207F10C01786800F08EFFC1
:100CB000034687F82F3097F92F30002B54D17B68EB
:100CC00093F87C3387F8233097F82330042B04D033
:100CD000082B27D0032B11D043E0FB7E012B02D041
:100CE000BB7E012B05D13B6903F59C530833BB62E6
:100CF0003AE03B6903F57A73BB6235E0FB7E012B7A
:100D000002D0BB7E012B06D13B6903F54F53343330
:100D10005B00BB6228E03B6903F5285330335B007E
:100D2000BB6221E0F5237B6207F108031A4648F213
:100D30003601786802F042F8BB68002B07DDBB681B
:100D4000F52202FB03F31A467B6A13447B627B6A3B
:100D500003F6DC53FB613B695A00FB691344BB6239
:100D600002E0F82387F82F3097F92F30002B02D1BB
:100D70003B68BA6A1A6097F92F3018463037BD467B
:100D800080BD000080B584B000AF7860396000237A
:100D9000FB733B68BB60BB689B01094AA2FB032352
:100DA0009B09BA681344BB60B968786800F087FE95
:100DB0000346FB7397F90F3018461037BD4680BDC8
:100DC000D34D621080B584B000AF786039600023E5
:100DD000FB7307F108031946786800F099FE034693
:100DE000FB73BA68BB689B010749A1FB03139B090E
:100DF000D31ABB60BA683B681A6097F90F3018467F
:100E00001037BD4680BD00BFD34D621080B586B09F
:100E100000AFF8600B467A607B810023FB757B890D
:100E2000002B02D0012B09D011E07B689B0BBB8209
:100E3000BB8A1946F86801F01BFA0AE07B685B0A76
:100E4000BB82BB8A1946F86801F03EFA01E0FC2338
:100E5000FB7597F9173018461837BD4680BD80B529
:100E600084B000AF78600B467B8013467B70002314
:100E7000FB730023BB607B88012B02D9FC23FB732F
:100E800014E07B78002B02D10023BB6006E07B8856
:100E90007A68E0339B0013449B68BB607B88BA6828
:100EA00019467868FFF7B2FF0346FB7397F90F30D6
:100EB000002B0CD17B887A78002A14BF01220022F3
:100EC000D2B211467A6813440A4683F8842397F90C
:100ED0000F3018461037BD4680BD80B487B000AFD4
:100EE000F8600B467A607B810023FB757B89012BC0
:100EF00005D9FC23FB757B6800221A7008E07B890A
:100F0000FA68134493F88433BB757B68BA7D1A7012
:100F100097F9173018461C37BD465DF8047B7047BB
:100F200080B586B000AFF8600B467A607B81002305
:100F3000FB757B89012B02D9FC23FB7523E07B89A0
:100F4000FA68134493F88433BB75BB7D002B07D13B
:100F50007B89FA68E0339B0013447A689A6012E058
:100F60007B897A681946F868FFF750FF0346FB75DE
:100F700097F91730002B06D17B89FA68E0339B0084
:100F800013447A689A6097F9173018461837BD46A7
:100F900080BD80B588B000AFF8600B467A607B8179
:100FA0000023FB777B89002B02D0012B0CD017E0AC
:100FB00007F114031946F86801F044F90346FB777A
:100FC000BB8A9B03BB610DE007F116031946F86865
:100FD00001F064F90346FB77FB8A5B02BB6101E029
:100FE000FC23FB7797F91F30002B23D1BB69002B23
:100FF00010D17B89FA68E0339B0013449B68BB6186
:101000007B68BA691A607B89FA681344002283F806
:1010100084230FE07B68BA691A607B89FA68E03341
:101020009B001344BA699A607B89FA6813440122D1
:1010300083F8842397F91F3018462037BD4680BDBA
:1010400080B586B000AFF8600B467A60FB72002373
:10105000FB75FB7A7A681946F86800F022FE0346B1
:10106000FB7597F9173018461837BD4680BD00004C
:1010700080B586B000AF78600023FB757B6893F87D
:101080007833BB75BB7D052B06DC042B0BDA002BFC
:101090000CDB022B07DD03E0623B012B06D802E0EC
:1010A0000023FB7504E0F223FB7501E0FD23FB75D3
:1010B0007B689B787B7597F91730002B1FD17B7D60
:1010C000402B1CD107F1100319467868FFF7B0FDDB
:1010D00003463B753B69174AA2FB03239B093B610F
:1010E00007F10C0319467868FFF76CFE03463B7561
:1010F0003B691A1DFB689A4201D9FC23FB7597F9DD
:101100001730002B07D17B7D06221946786801F045
:1011100011F90346FB7597F91730002B03D17B6853
:10112000042283F8782397F9173018461837BD46FC
:1011300080BD00BFD34D621080B58AB000AF78602B
:10114000002387F8273007F118031946786800F064
:1011500002FE034687F827307B6893F87C3387F8D4
:1011600026307B6893F87F3387F8253097F927304E
:10117000002B0BD107F1140307F1100207F10C014A
:10118000786800F023FD034687F8273097F9273069
:10119000002B05D1786801F0F7FA034687F827306D
:1011A00097F92730002B07D14FF4FA71786804F0D3
:1011B0008BFF034687F8273097F92730002B0DD196
:1011C0007B685B693B6297F8252097F826103B6A9D
:1011D0007868FFF723FB034687F8273097F9273015
:1011E000002B0FD1F9683A697B69786800F0B6FC8A
:1011F000034687F8273097F92730002B02D17A6908
:101200007B681A6197F92730002B08D107F1180382
:101210001946786800F07CFD034687F8273097F977
:101220002730002B0BD17B689B78FB77FB7F062256
:101230001946786801F07EF8034687F8273097F959
:101240002730002B04D17B6897F8252083F87E2374
:1012500097F9273018462837BD4680BD80B584B041
:1012600000AF78600023FB737B689B78BB737B685F
:1012700093F87E337B737B6893F87F333B733A7BC1
:101280007B7B9A4205D07868FFF756FF0346FB73D5
:1012900006E0BB7B1946786801F0D5FB0346FB737B
:1012A00097F90F3018461037BD4680BD80B584B021
:1012B00000AF786039600023FB733968786804F008
:1012C00032FD0346FB7397F90F3018461037BD46C1
:1012D00080BD000080B48DB000AF03463A60FB7162
:1012E0000B46BB714FF49673BB841E237B84344B37
:1012F000FB61344BBB6141F69A137B61FB79002B98
:1013000003D1002387F8273052E0BB79072B03D1A4
:10131000322387F827304BE03B68B3F93C30B7F90C
:1013200024209A4203DD7B8C1B04FB6207E03B68B0
:10133000B3F93C301A467B6903FB02F3FB62FB6A9C
:10134000002B20D03B681B8F1A46BB6903FB02F3BE
:101350003B61FB6A5B083A6913443B613A69FB6A8B
:10136000B2FBF3F33B613B691B043B613A69FB69E8
:101370009A4204D8FA693B69D31ABB6206E04FF47B
:101380004813BB6202E04FF4C803BB62BB6A1B0C8C
:10139000FB73FB7B642B02D8FB7B322B05DDFB7BD5
:1013A000642B28BF6423DBB200E0322387F82730A8
:1013B00097F8273018463437BD465DF8047B7047F0
:1013C00033B37500CDCC300080B485B000AF034698
:1013D000FB71FB79043B0F2B3DD801A252F823F09F
:1013E000331400082D140008391400083F140008B5
:1013F0004B14000851140008571400085714000833
:101400004514000857140008571400085714000822
:101410005714000857140008211400082714000866
:101420000A23FB7319E00623FB7316E00423FB7306
:1014300013E00223FB7310E00123FB730DE007238D
:10144000FB730AE00923FB7307E00323FB7304E04B
:101450000023FB7301E0FF23FB73FB7B184614376B
:10146000BD465DF8047B704780B58CB000AFF86076
:101470007B600B46FB721346BB72002387F82F304C
:101480007B685A68BB6B1A607B6893F83E3003F048
:101490001F0387F82E3097F82E10FB7A7A681846CB
:1014A000FFF718FF03461A46BB6B5A717B689B8D8A
:1014B0005B02BB62BB6BBA6A9A607B681B8E5B0285
:1014C0007B62BB6B7A6ADA607B681A8ABB6B1A82B2
:1014D0007B681B8F5B023B62BB6B3A6A5A617B681D
:1014E000B3F93C20BB6B1A83BB6B00229A76BB7AA4
:1014F000013B102B2CD801A252F823F04115000813
:101500004115000841150008511500085115000843
:101510005115000851150008511500085115000813
:10152000511500085115000851150008491500080B
:101530005115000851150008511500084115000803
:10154000BB6B0522DA7606E0BB6B0D22DA7602E091
:10155000BB6B0022DA76BB6BDB7E002B08D197F8E1
:101560002E301846FFF730FF03461A46BB6BDA767B
:101570007B681B8F5B023B62FB683A6AC3F890236F
:101580007B689B8D5B023B62FB683A6AC3F89423DD
:1015900007F114031A460021F868FFF7FAFC97F8E0
:1015A0002E30062B0CBF01230023DBB2FB7707F1A3
:1015B00019031A460021F868FFF78FFC7B7E012B88
:1015C00004D1FB7F012B01D1012300E00023BB7775
:1015D000FB68BA7F83F8862307F114031A460121BA
:1015E000F868FFF7D6FC97F82E30042B0CBF0123C8
:1015F0000023DBB27B7707F119031A460121F86853
:10160000FFF76BFC7B7E012B04D17B7F012B01D18B
:10161000012300E00023BB77FB68BA7F83F88723B0
:10162000BB6B1B8B7B83BB6BDB7E002B10D1B7F9B5
:101630001A30002B0CDAB7F91A20084B5B689A4273
:1016400003DABB6B0E22DA7602E0BB6B00221A8350
:1016500097F92F3018463037BD4680BD0000002076
:1016600080B5A8B002AF78603960002387F8973062
:1016700007F10803C7F890301C22FF2138680BF0EF
:1016800074F8D7F890200221786801F05EF90346DB
:1016900087F8973097F99730002B17D1D7F890300B
:1016A0009A783B681A71D7F890300433C7F88C30B9
:1016B000D7F89030DA783B680093D7F88C30012166
:1016C0007868FFF7D1FE034687F8973097F997308F
:1016D00018469837BD4680BD80B58EB002AF7860A1
:1016E00039600023FB767B68FB6207F10C03194627
:1016F000786801F01FFB0346FB7697F91B30002B3F
:1017000040F0BA803B681B78002B0DD10123BB73DE
:101710003B8BADF8003007F10C030ECB786801F07D
:10172000DBFA0346FB76A7E03B689B78022B03D0ED
:101730003B689B78032B07D13B68DA883B689B8822
:101740009A4201D9FC23FB7697F91B30002B0FD16D
:101750003B681B7A022B03D03B681B7A032B07D113
:101760003B681A693B68DB689A4201D9FC23FB7627
:1017700097F91B30002B49D10023BB733B685B7882
:10178000FB73FB6AB3F89C307B857B8D5B017B62CE
:101790003B689B881B043B623B68DB881B04FB6146
:1017A0003B6A03F500427B6AB2FBF3F33B62FB69E1
:1017B00003F500427B6AB2FBF3F3FB613B6A9BB229
:1017C0007B82FB699BB2BB823B68DB685B0A9BB296
:1017D000FB823B681B695B0A9BB23B833B689A7840
:1017E00007F11B0311461846FEF7DAFE03463B736A
:1017F00097F91B30002B09D13B681A7A07F11B03BC
:1018000011461846FEF7CCFE03467B7397F91B3052
:10181000002B22D101233B743B681B78013B032B37
:1018200017D801A252F823F039180008431800080D
:101830004D180008591800080023FB8200233B8341
:101840000BE000237B820023BB8206E000233B7475
:1018500003E0FC23FB7600E000BF97F91B30002B70
:101860000AD13B8BADF8003007F10C030ECB786842
:1018700001F032FA0346FB7697F91B3018463037F1
:10188000BD4680BDB0B588B004AF78600B46FB7034
:101890000023FB737B68BB606221786802F08CF9DF
:1018A000BB6800221A70BB6801225A70BB68002214
:1018B0009A70BB680122DA70BB6801221A71BB689A
:1018C0004FF47A729A60BB684FF4FA62DA60BB68D0
:1018D00043F2C8221A61BB6864225A61BB684FF4A4
:1018E00020621A83BB68002283F82120BB6840F283
:1018F000DB72A3F89C20786802F042F9FB78002B99
:1019000008D097F90F30002B04D1786800F057F811
:101910000346FB73BB6803F58873184601F072FC3D
:101920000346FB73BB6803F59073184601F08EFC09
:101930000346FB73BB6803F14202BB6803F5967371
:101940001946104601F0A3FC0346FB73BB6803F580
:10195000A273184601F0FDFC0346FB73BB68A43379
:10196000184601F01DFD0346FB732021786800F046
:10197000C1FC0346FB7397F90F30002B16D1BB68EF
:101980005878BB681C8BBB689D68BB68DB68BA680D
:101990001269B96849690291019200932B46224667
:1019A0000146786800F0D8FA0346FB73786802F0C5
:1019B00016FF97F90F3018461037BD46B0BD80B5F9
:1019C00084B000AF78600023FB737B68BB6097F93D
:1019D0000F30002B08D1BB6803F5AC73194678684B
:1019E00003F052F90346FB7397F90F30002B07D130
:1019F000BB6842331946786803F084FA0346FB73E8
:101A000097F90F30002B15D1BB6803F5FD7319460C
:101A1000786804F05DF90346FB7397F90F30002BEB
:101A200008D1BB6803F5FD72BB68F0331946104658
:101A300002F025FA97F90F30002B09D1BB6803F5A6
:101A40002D731A46DE21786804F0DEFA0346FB7334
:101A5000BB68B3F85E31B3F5805F04D2BB684BF668
:101A6000CC42A3F85E2197F90F30002B07D1BB6859
:101A70009E331946786800F090F90346FB73BB6803
:101A800093F8A230002B14D1BB6893F8A330002B3D
:101A90000FD1BB6893F89E301B01DAB2BB6883F8A4
:101AA000A220BB6893F89F301B01DAB2BB6883F8B1
:101AB000A32097F90F3018461037BD4680BD80B47B
:101AC00085B000AF786039600023FB737B68BB6032
:101AD000BB68B3F8B432002B01D1F123FB7397F943
:101AE0000F30002B0CD1BB683A685A61BB68B3F861
:101AF000B4321A463B6803FB02F2BB68C3F8AC2160
:101B000097F90F3018461437BD465DF8047B7047CF
:101B100080B485B000AF786039600023FB737B68C8
:101B2000BB60BB68B3F8B432002B01D1F123FB7367
:101B300097F90F30002B09D1BB68D3F8AC31BA68E4
:101B4000B2F8B422B3FBF2F23B681A6097F90F3097
:101B500018461437BD465DF8047B704780B588B0E1
:101B600002AFF860B9607A603B600023FB75FB68E8
:101B70003B613B69B3F85E31002B01D1F123FB756A
:101B800097F91730002B1BD13B69BA689A603B6903
:101B90007A68DA603B693A681A613B69B3F85E11AA
:101BA0003B6903F5C2733A6902F5CE720192009364
:101BB0000B463A687968B86802F079FC0346FB7511
:101BC00097F9173018461837BD4680BD80B588B0E4
:101BD00000AFF860B9607A603B600023FB77FB6878
:101BE000BB6100237B6100237B82BB69B3F85E315C
:101BF000002B01D1F123FB7797F91F30002B4AD13D
:101C0000BB69B3F85E21BB6993F8A231194610464F
:101C100002F0F8FA7861BB6993F88B31796918465C
:101C200002F0B1FB0246BB681A60BB6993F89C31B5
:101C30007B827B8A1B029AB2BB6993F89D319BB26F
:101C400013447B827B8A7969184602F0D5FB0246F1
:101C50007B681A60BB6993F8A0317B827B8A1B0288
:101C60009AB2BB6993F8A1319BB213447B827B8A01
:101C70007969184602F0C0FB02463B681A60BB68EF
:101C80001A68BB699A607B681A68BB69DA603B684E
:101C90001A68BB691A6197F91F3018462037BD468C
:101CA00080BD80B487B000AFF8600B467A60FB72ED
:101CB0000023FB75FB683B610123BB75FB7A072B97
:101CC0001CD8FB7A002B04D0FB7A012202FA03F322
:101CD000BB753B6993F8C521BB7D1340DAB27B68C5
:101CE0001A70FB7A002B0BD07B681B781A46FB7AA4
:101CF00042FA03F3DAB27B681A7001E0FC23FB7549
:101D000097F9173018461C37BD465DF8047B7047BD
:101D100080B584B000AF786039600023FB737B68C6
:101D2000BB603B6858783B681978BB6803F2C31303
:101D30001A4602F035FC3B6898783B68D978BB6856
:101D400003F5E2731A4602F06AFC97F90F30184661
:101D50001037BD4680BD80B584B000AF7860396073
:101D60000023FB737B68BB60BB6893F8C3013B68CF
:101D700001333A68194602F0A3FEBB6893F8C40128
:101D80003B68991C3B6803331A4602F030FC97F914
:101D90000F3018461037BD4680BD80B586B000AF05
:101DA000786039600023FB757B683B610023BB735F
:101DB00000237B730023FB733B6993F82A3207F1FE
:101DC0000E0207F10D01184602F07AFEBA7B3B685D
:101DD0001A707A7B3B685A703B6993F82B32FB731D
:101DE000FB7B1B09DAB23B68DA70FB7B03F00F0365
:101DF000DAB23B689A7097F9173018461837BD4623
:101E000080BD000080B487B000AFF8607A603B60AE
:101E10000B46FB720023FB75FB683B61FB7A013BC1
:101E2000252B00F28E8001A252F823F0C51E000877
:101E3000C51E0008C51E0008C51E0008C51E0008F6
:101E4000EF1E0008EF1E0008EF1E0008431F0008E9
:101E5000431F0008431F0008431F0008431F0008DA
:101E6000431F0008431F0008431F0008C51E000849
:101E7000EF1E0008431F0008431F0008431F00080F
:101E8000431F0008431F0008431F0008431F0008AA
:101E9000431F0008431F0008431F0008431F00089A
:101EA000431F0008431F0008431F0008431F00088A
:101EB000431F0008431F0008191F0008191F0008CE
:101EC000191F00083B69B3F8CA207B681A803B6978
:101ED000D3F8D0203B681A603B69D3F8D8203B6A1E
:101EE0001A603B69D3F8E4207B6A1A602CE03B69F6
:101EF000B3F8CC207B681A803B69D3F8D4203B68C8
:101F00001A603B69D3F8DC203B6A1A603B69D3F85E
:101F1000E8207B6A1A6017E03B69B3F8CC207B6845
:101F20001A803B69D3F8D4203B681A603B69D3F828
:101F3000E0203B6A1A603B69D3F8EC207B6A1A60A8
:101F400002E0FC23FB7500BF97F9173018461C37D9
:101F5000BD465DF8047B704780B592B004AFF86071
:101F60007B600B46FB7213463B81002387F83730BA
:101F7000FB683B633B6B03F5B273FB623B6B03F5A2
:101F8000C273BB623B6B03F5CE737B623B6B03F5A5
:101F9000DA733B623B6B03F5E473FB613B6BA43389
:101FA000BB613B6B03F539737B613B6BFA7A5A700B
:101FB0003B6B3A6CDA603B6B7A6C1A613B6BBA6CC8
:101FC0005A610321F86801F0F7FDFB7A013B252BEC
:101FD00000F20C8101A252F823F000BF7520000826
:101FE00091200008AD200008C9200008E520000865
:101FF000012100081D21000839210008ED210008F9
:10200000ED210008ED210008ED210008ED21000878
:10201000ED210008ED210008ED2100085521000800
:1020200071210008ED210008ED210008ED210008D4
:10203000ED210008ED210008ED210008ED21000848
:10204000ED210008ED210008ED210008ED21000838
:10205000ED210008ED210008ED210008ED21000828
:10206000ED210008ED2100088D210008AD210008B8
:10207000CD210008BB690193FB6900933B6A7A6A32
:10208000B96AF86A01F01AFA034687F83730B1E006
:10209000BB690193FB6900933B6A7A6AB96AF86A83
:1020A00001F02AFB034687F83730A3E0BB690193B0
:1020B000FB6900933B6A7A6AB96AF86A01F05DFBD2
:1020C000034687F8373095E0BB690193FB690093BD
:1020D0003B6A7A6AB96AF86A01F090FB034687F8AE
:1020E000373087E0BB690193FB6900933B6A7A6AEA
:1020F000B96AF86A01F0A7FB034687F8373079E040
:10210000BB690193FB6900933B6A7A6AB96AF86A12
:1021100001F0BEFB034687F837306BE0BB690193E3
:10212000FB6900933B6A7A6AB96AF86A01F0EAFBD4
:10213000034687F837305DE0BB690193FB69009384
:102140003B6A7A6AB96AF86A01F016FC034687F8B6
:1021500037304FE0BB690193FB6900933B6A7A6AB1
:10216000B96AF86A01F0EAFC034687F8373041E0C3
:10217000BB690193FB6900933B6A7A6AB96AF86AA2
:1021800001F0A6FC034687F8373033E07B69029301
:10219000BB690193FB6900933B6A7A6AB96AF86A82
:1021A00001F04AFC034687F8373023E07B6902934D
:1021B000BB690193FB6900933B6A7A6AB96AF86A62
:1021C00001F014FC034687F8373013E07B69029373
:1021D000BB690193FB6900933B6A7A6AB96AF86A42
:1021E00001F050FC034687F8373003E0FC2387F802
:1021F000373000BF97F93730002B05D1FB6A3A8999
:102200001A803B6B3A891A8397F93730002B08D133
:102210007B6C3A6C7968F868FFF7A0FC034687F896
:10222000373097F93730002B06D1B96CF868FFF7D3
:1022300046FC034687F8373097F937301846383769
:10224000BD4680BD80B485B000AF786039600023A2
:10225000FB737B68BB60BB68B3F8A6213B681A8040
:1022600097F90F3018461437BD465DF8047B704768
:1022700080B485B000AF78600B467B800023FB7391
:102280007B68BB60BB687A88A3F8A62197F90F30FA
:1022900018461437BD465DF8047B704780B485B09E
:1022A00000AF786039600023FB737B68BB60BB685C
:1022B000B3F8A8213B681A8097F90F3018461437F5
:1022C000BD465DF8047B704780B485B000AF786090
:1022D0000B467B800023FB737B68BB60BB687A88FE
:1022E000A3F8A82197F90F3018461437BD465DF8BA
:1022F000047B704780B485B000AF78600B46FB70FC
:102300000023FB737B68BB60BB6893F8603103F00C
:102310000303DAB2FB789B00DBB21344DAB2BB688A
:1023200083F8602197F90F3018461437BD465DF8E1
:10233000047B704780B5D0B000AF3B1D18600846E5
:102340001146FB1C02461A70BB1C0A461A70002379
:1023500087F83F313B1D1B68C7F83031D7F8303163
:1023600003F5AC73C7F82C31D7F830314233C7F8D6
:102370002831D7F8303103F5B273C7F82431D7F8D4
:10238000303103F5C273C7F82031D7F8303103F587
:10239000CE73C7F81C31D7F8303103F5DA73C7F8BC
:1023A0001831D7F8303103F5E473C7F81431D7F892
:1023B00030312C33C7F8103107F10C03C7F838312E
:1023C0000023A7F836310023A7F834310023A7F8FB
:1023D0000E310023A7F80C31D7F83031FA1C1278EF
:1023E0009A70D7F814311B795BB203F00F035AB21D
:1023F000FB1C93F9003013435BB2DAB2D7F8143107
:102400001A71D7F83031B3F84221D7F83031A3F838
:102410007C21D7F8303193F8E632FF2B04D1D7F87E
:102420003031002283F8E622D7F8303193F8E532D4
:10243000012B33D1D7F8303193F8E632002B2DD170
:10244000D7F8303193F88621D7F8303183F8E72276
:10245000D7F83031202283F88621D7F8303193F82D
:10246000C53103F06003002B0CD1D7F83031B3F93C
:1024700058309BB29B009BB21AB2D7F83031A3F808
:10248000542004E0D7F830310022A3F85420BB1CBC
:102490001B78042B02D8BB1C05221A70D7F83031E8
:1024A00093F8E532012B10D1D7F8303193F8E632AA
:1024B000012B0AD1D7F8303193F8E722D7F8303121
:1024C00083F88621BB1C06221A70BB1C1B78013BBB
:1024D000052B27D801A252F823F000BF1D250008C4
:1024E000152500080D25000805250008FD24000815
:1024F000F52400080123A7F8343117E00D23A7F8CD
:10250000343113E02423A7F834310FE04423A7F833
:1025100034310BE05A23A7F8343107E07123A7F8D0
:10252000343103E08323A7F8343100BFB7F83431E6
:10253000C3F18803A7F80C3107F10C03C7F8383151
:102540000023A7F836310BE0D7F838315A1CC7F80A
:10255000382100221A70B7F836310133A7F8363126
:10256000B7F83621B7F80C319A42EDD3BB1C1B7873
:10257000052B17D997F93F31002B13D1B7F8343118
:10258000C3F10103A7F80E31B7F80E3107F10C02C1
:1025900013441A460B21D7F82C0102F0C0FA034667
:1025A00087F83F31BB1C1B78042B17D997F93F31B3
:1025B000002B13D1B7F83431C3F10D03A7F80E3156
:1025C000B7F80E3107F10C0213441A461721D7F859
:1025D000280102F080FB034687F83F31BB1C1B78C3
:1025E000032B17D997F93F31002B13D1B7F83431AA
:1025F000C3F12403A7F80E31B7F80E3107F10C022E
:1026000013441A462021D7F8240102F0A2FC034605
:1026100087F83F31BB1C1B78022B17D997F93F3144
:10262000002B13D1B7F83431C3F14403A7F80E31AE
:10263000B7F80E3107F10C0213441A461621D7F8E9
:10264000200102F069FD034687F83F31BB1C1B786F
:10265000012B17D997F93F31002B13D1B7F834313B
:10266000C3F15A03A7F80E31B7F80E3107F10C0287
:1026700013441A461721D7F81C0102F0D1FD034676
:1026800087F83F31BB1C1B78002B36D097F93F31C0
:10269000002B32D1B7F83431C3F17103A7F80E31F2
:1026A000D7F814311B7903F02003002B17D0D7F88B
:1026B00010319B7843F00103DAB2D7F818311A7061
:1026C000D7F810319B7843F00103DAB2D7F818310C
:1026D0001A73D7F810319A78D7F818319A74B7F876
:1026E0000E3107F10C0213441A461221D7F81801D3
:1026F00002F018FE034687F83F3197F93F31002B6F
:1027000013D1B7F83431C3F18303A7F80E31B7F80A
:102710000E3107F10C0213441A460521D7F81401B3
:1027200002F085FE034687F83F3197F93F31002BD1
:102730000CD1B7F80C3107F10C02B7F83411381D81
:10274000006803F09BFB034687F83F3197F93F3160
:10275000002B06D13B1D186801F058FA034687F894
:102760003F3197F93F31002B06D13B1D186801F02E
:1027700020FB034687F83F3197F93F31184607F5AC
:10278000A077BD4680BD00BF80B584B000AF786043
:102790000023FB737B68BB60BB6893F8CC315BB2F2
:1027A00003F00F035BB263F07F035BB2DAB2BB6886
:1027B00083F8CC21BB6803F5E4731946786802F00E
:1027C00071FE0346FB73BB6893F8CC3103F00F0333
:1027D000DAB2BB6883F8CC210321786801F0ECF908
:1027E000BB6893F8E532012B02D1786802F02BF830
:1027F00097F90F3018461037BD4680BD80B5C8B078
:1028000000AF3B1D18600A46FB1C1A70002387F8B6
:102810001F313B1D1B68C7F81831D7F8183103F575
:10282000E773C7F81431D7F8183103F52273C7F8E6
:102830001031D7F8183103F52B73C7F80C31882302
:10284000A7F80A310023A7F808310023A7F81C31A4
:10285000FB1C1B78012B08D0022B0DD1B7F80A31D5
:10286000C3F58773A7F81C310AE0B7F80A31C3F142
:10287000D503A7F81C3103E02C23A7F81C3100BFB7
:1028800097F91F31002B0CD1B7F81C3107F1080262
:10289000B7F80A11381D006803F026FB034687F8D5
:1028A0001F31FB1C1B78012B17D997F91F31002B07
:1028B00013D1B7F80A31C3F1D603A7F80831B7F836
:1028C000083107F108021344D7F80C2119463820C3
:1028D00002F066FF034687F81F31FB1C1B78002BB4
:1028E00017D097F91F31002B13D1B7F80A31C3F174
:1028F000B403A7F80831B7F8083107F10802134408
:10290000D7F810211946212002F0E9FE034687F886
:102910001F3197F91F31002B10D10023A7F8083180
:10292000B7F8083107F108021344D7F81421194603
:102930002C2002F0DEFD034687F81F3197F91F3186
:10294000184607F59077BD4680BD80B588B000AFCA
:10295000F8600B467A60FB720023FB77FB68BB6173
:10296000FB6803F53D737B617B693B6197F91F3021
:10297000002B06D1FB7A1946F868FFF73FFF0346A4
:10298000FB7797F91F30002B0CD1BB69B3F89C3053
:102990001846BB6903F5E771BB6903F522723B6911
:1029A00000F06CF8BB6993F8E532012B2DD197F953
:1029B0001F30002B0ED1BB6993F8E632002B09D1F2
:1029C000F86801F09AFF0346FB77BB69012283F8A0
:1029D000E6220CE097F91F30002B08D1BB6993F871
:1029E000E632012B03D1BB69022283F8E622BB69E0
:1029F00093F8E632FF2B08D097F91F30002B04D153
:102A0000F86801F0BFFF0346FB77BB6993F82C2001
:102A10003B691A70BB6993F830203B695A70842275
:102A20003969786809F096FE97F91F30002B04D1B8
:102A3000F86801F073F90346FB7797F91F301846E1
:102A40002037BD4680BD80B584B000AF78600B46AE
:102A5000FB700023FB7397F90F30002B07D1FB7835
:102A6000032219467868FFF765FC0346FB7397F964
:102A70000F3018461037BD4680BD000080B489B0C5
:102A800000AFF860B9607A603B600023FB770023F9
:102A90003B6100237B61BB68DA783B689A703B68D6
:102AA0000433BB610023FB77D0E0BB69FA7F1A7067
:102AB000BB6900225A60BB68DB78002B0AD1BB6877
:102AC0005B7803F01F03092B04D1BB69132283F841
:102AD0003E2007E0BB685B7803F01F03DAB2BB69F6
:102AE00083F83E20FB7F002B02D0012B5DD0A7E0B6
:102AF000BB689B78072B04D1BB685A8ABB691A82D2
:102B00000CE0BB689B78082B04D1BB689A8ABB6930
:102B10001A8203E0BB689A88BB691A82BB681A8A6A
:102B2000BB699A85BB68DA8ABB69DA85BB681A8992
:102B3000BB691A86BB685B895B017B617B69B3F506
:102B4000803F02D34FF6FF737B617B699AB2BB690A
:102B50001A87BB689A89BB695A87BB68DB893B6166
:102B60003B69FA6802FB03F33B613B6903F5806351
:102B70003B613B69002B01DA03F2FF73DB123B611F
:102B80003B691AB2BB699A877B685A68BB695A620B
:102B90007B689A68BB699A627B68DA68BB695A612C
:102BA0007B681A68BB691A624AE0BB681A8BBB690A
:102BB0001A82BB685A8BBB699A85BB694FF6FF7254
:102BC000DA85BB689A8BBB691A86BB68DB8B5B01B5
:102BD0007B617B69B3F5803F02D34FF6FF737B6166
:102BE0007B699AB2BB691A87BB681A8CBB695A8722
:102BF000BB685B8C3B613B69FA6802FB03F33B619A
:102C00003B6903F580633B613B69002B01DA03F20A
:102C1000FF73DB123B613B691AB2BB699A877B6821
:102C20005A69BB695A627B689A69BB699A627B6818
:102C3000DA69BB695A617B681A69BB691A6200BFAD
:102C4000BB694033BB61FB7F0133FB77FB7F012B0B
:102C50007FF62BAF3B680022DA70BB685B7803F02D
:102C60001F03013B102B31D801A252F823F000BF03
:102C7000B52C0008B52C0008B52C0008CD2C000898
:102C8000CD2C0008CD2C0008CD2C0008CD2C000840
:102C9000CD2C0008CD2C0008CD2C0008CD2C000830
:102CA000B52C0008CD2C0008CD2C0008CD2C000838
:102CB000B52C0008BB685B7803F01F03DAB23B68F1
:102CC000DA703B68002283F8422000BF00BF24373F
:102CD000BD465DF8047B704784B080B586B000AF18
:102CE000786007F1240080E80E000023FB757B6804
:102CF0003B613B693433FB6007F124030E22194624
:102D0000F86809F027FDF86801F09FFC03461A46B1
:102D10003B6983F88621F968786801F03BFD03463A
:102D2000FB7597F9173018461837BD46BDE8804047
:102D300004B0704790B589B000AF78613961002365
:102D4000FB777B69BB61BB6993F88621BC693B4615
:102D50001146184601F0ABFC04F134033C462068F0
:102D60006168A26807C3A2891A80BB69B3F8B6215B
:102D7000BB695A87BB69B3F8B821BB699A87BB693D
:102D8000B3F89021BB69DA87BB69B3F89221BB69BC
:102D9000A3F84020BB6903F134023B699A4206D094
:102DA000BB6934330E221946386909F0D3FC97F910
:102DB0001F3018462437BD4690BD000080B487B050
:102DC00000AFF8600B467A607B810023FB75FB68DF
:102DD0003B617B89A3F50043382B00F2048201A2FA
:102DE00052F823F0C92E0008D72E0008E52E00085F
:102DF000F32E0008012F00080F2F00081D2F0008D8
:102E00002B2F0008392F0008472F0008552F0008E6
:102E1000632F0008712F00087F2F00088D2F0008F6
:102E20009B2F0008A92F0008B72F0008C52F000806
:102E3000D32F0008E12F0008EF2F0008FD2F000816
:102E40000B30000819300008273000083530000822
:102E500043300008513000085F3000086D30000832
:102E60007B3000088930000897300008A530000842
:102E7000B3300008C1300008CF300008DD30000852
:102E8000EB300008F9300008073100081531000860
:102E900023310008313100083F3100084D3100086E
:102EA0005B3100086931000877310008853100087E
:102EB00093310008A1310008AF310008BD3100088E
:102EC000CB310008D93100083B69B3F8A4301A4669
:102ED0007B681A608EE13B69B3F8A6301A467B68BE
:102EE0001A6087E13B69B3F8A8301A467B681A601C
:102EF00080E13B6993F8B0301A467B681A6079E14B
:102F00003B6993F8B1301A467B681A6072E13B69FD
:102F1000B3F8B2301A467B681A606BE13B69B3F8CC
:102F20009C301A467B681A6064E13B6993F8B430C0
:102F30001A467B681A605DE13B69B3F8B6301A4601
:102F40007B681A6056E13B69B3F8B8301A467B6873
:102F50001A604FE13B69B3F8BA301A467B681A60D1
:102F600048E13B69B3F8BC301A467B681A6041E11E
:102F70003B69B3F8BE301A467B681A603AE13B6998
:102F8000B3F8C0301A467B681A6033E13B6993F8A6
:102F9000C2301A467B681A602CE13B6993F8C33053
:102FA0001A467B681A6025E13B6993F8C4301A46DB
:102FB0007B681A601EE13B6993F840311A467B68D2
:102FC0001A6017E13B6993F8C5301A467B681A60AE
:102FD00010E13B6993F8C7301A467B681A6009E133
:102FE0003B6993F8C8301A467B681A6002E13B6976
:102FF000B3F93E311A467B681A60FBE03B6993F8EF
:10300000AA301A467B681A60F4E03B6993F8AB304B
:103010001A467B681A60EDE03B6993F8AC301A46BB
:103020007B681A60E6E03B6993F8AD301A467B682E
:103030001A60DFE03B6993F8AE301A467B681A608D
:10304000D8E03B6993F8AF301A467B681A60D1E04C
:103050003B6993F8C6301A467B681A60CAE03B6940
:1030600093F860311A467B681A60C3E03B6993F8B5
:1030700010311A467B681A60BCE03B6993F8113145
:103080001A467B681A60B5E03B69D3F814311A46DA
:103090007B681A60AEE03B69B3F818311A467B686A
:1030A0001A60A7E03B69B3F81A311A467B681A60C8
:1030B000A0E03B69B3F81C311A467B681A6099E0BE
:1030C0003B69B3F844311A467B681A6092E03B6969
:1030D000D3F848311A467B681A608BE03B69D3F815
:1030E00050311A467B681A6084E03B69D3F84C3152
:1030F0001A467B681A607DE03B6993F854311A46A2
:103100007B681A6076E03B6993F855311A467B6814
:103110001A606FE03B6993F856311A467B681A6073
:1031200068E03B6993F821311A467B681A6061E0D8
:103130003B6993F822311A467B681A605AE03B6972
:10314000B3F828311A467B681A6053E03B69B3F83C
:10315000CA301A467B681A604CE03B69B3F8CC3041
:103160001A467B681A6045E03B69D3F8D0301A46AE
:103170007B681A603EE03B69D3F8D4301A467B681E
:103180001A6037E03B69D3F8D8301A467B681A607A
:1031900030E03B69D3F8DC301A467B681A6029E0DE
:1031A0003B69D3F8E4301A467B681A6022E03B6939
:1031B000D3F8E8301A467B681A601BE03B6993F845
:1031C000E4321A467B681A6014E03B69D3F8E030B9
:1031D0001A467B681A600DE03B69D3F8EC301A465A
:1031E0007B681A6006E07B686FF000421A60FC237F
:1031F000FB7500BF97F9173018461C37BD465DF8C0
:10320000047B704780B485B000AF78600023FB7307
:103210007B6808221A707B680B225A707B684FF417
:103220007A725A607B684FF420621A817B684FF48F
:10323000A0625A817B684FF4A0529A8197F90F30AF
:1032400018461437BD465DF8047B704780B485B0DE
:1032500000AF78600023FB737B6800221A707B68E4
:1032600012225A707B680F229A707B680222DA70F1
:103270007B6848F6A0425A607B680C221A8197F955
:103280000F3018461437BD465DF8047B704780B593
:1032900084B000AF786039600023FB737B685B8982
:1032A0001A463B681A607B68B3F90C203B689A8029
:1032B0007B68B3F90E203B68DA807B685B891A462D
:1032C0003B689A607B68B3F90C203B689A817B6805
:1032D000B3F90E203B68DA813B6800225A823B68D2
:1032E00040221A753B681B68002B0DD13B68B3F96F
:1032F0000430002B08D13B68B3F90630002B03D112
:103300003B6800221A7402E03B6801221A7497F9A4
:103310000F30002B14D13B681B7C012B10D13B6874
:1033200018683B68B3F904103B68B3F906203B68A2
:103330001B7D00F097FF03461A463B68DA8202E0E5
:103340003B680022DA8297F90F3018461037BD46E5
:1033500080BD80B485B000AF78600023FB737B68CC
:103360004FF420621A807B684FF47A725A607B684F
:1033700043F2C8229A607B6843F2C822DA607B6815
:1033800008221A747B6828225A747B6809229A746E
:1033900097F90F3018461437BD465DF8047B704727
:1033A00080B485B000AF78600023FB737B6848F27F
:1033B00003021A807B6848F201025A807B6848F257
:1033C00041029A807B680E229A717B680A22DA7128
:1033D0007B6806221A727B680E225A727B680A2268
:1033E0009A727B680622DA727B6802221A737B6803
:1033F00021225A737B680022DA817B6800221A74CA
:103400007B684FF4B4725A827B684FF4B4729A822C
:103410007B684FF4B472DA827B68C0221A837B68BF
:10342000C0225A837B68C0229A837B6808229A77DD
:103430007B681022DA777B68012283F820207B6882
:10344000022283F821207B68012283F822207B68F6
:10345000022283F823207B68002283F824207B68E3
:103460004FF42062DA847B684FF420621A857B680F
:1034700048F23002DA627B684FF47A721A637B6832
:103480004FF4FA625A637B684FF4FA629A637B687E
:103490004FF218621A647B6843F2C8225A647B6850
:1034A0000122DA637B684FF4FA529A6497F90F307D
:1034B00018461437BD465DF8047B704780B487B06A
:1034C00000AFF860B9607A603B600023FB75FB6871
:1034D0004FF420621A80FB6800229A70FB68002279
:1034E000DA70FB6800221A71FB6800225A71FB68CF
:1034F00000229A71FB680022DA71FB6800221A72BE
:10350000FB6800225A72FB6800229A72FB68002254
:10351000DA72FB6811221A73FB6802225A73FB6885
:1035200000229A73FB680222DA73FB6808221A747D
:10353000FB6800225A747B6A9A7FFB689A747B6AE4
:10354000DA7FFB68DA747B6A93F82020FB681A75CF
:10355000FB6801225A75FB6800229A75FB680022FD
:10356000DA75FB6800221A83FB68FF229A767B6A71
:103570001A7CFB68DA767B6A1A7BFB681A77FB6831
:1035800000225A77FB6800229A77FB680022DA77DC
:10359000BB6800221A70BB6800225A70BB682022E8
:1035A0009A70BB680B22DA707B6ADA89BB689A80F2
:1035B000BB6802229A71BB680D22DA717B6A5A7B62
:1035C000BB681A72BB6800225A72BB6801229A72E9
:1035D000BB6800229A81BB680022DA81BB684FF485
:1035E0000C421A82BB6800229A74BB683822DA74D3
:1035F000BB68FF221A75BB6801225A757B680022DE
:103600001A707B681A225A707B6800229A707B6855
:103610002022DA707B6801221A717B68CC225A71F1
:103620007B680B229A717B680122DA717B68F52234
:103630001A727B6809225A727B6A9A8A7B685A815D
:103640007B6A5A8B7B689A817B6808229A737B68B5
:103650007822DA737B6800221A617B6800221A756F
:103660003B6801221A703B6800225A803B680022A6
:103670009A803B6800229A717B6A93F821203B680C
:10368000DA713B680B221A723B6809225A727B6A14
:10369000DA793B689A727B6A9A7A3B68DA723B689D
:1036A00001221A737B6A93F824203B685A737B6A61
:1036B00093F823203B689A733B68C722DA733B6810
:1036C000FF221A743B68DB225A743B6802229A7408
:1036D0003B6A00225A703B6A01229A703B6A0122BF
:1036E000DA703B6A21221A7197F9173018461C3795
:1036F000BD465DF8047B704780B588B002AFF860C6
:10370000B9607A603B600023FB757B6A01933B6A7A
:1037100000933B687A68B968F868FFF7CFFE034604
:10372000FB7597F91730002B21D17B6807229A711E
:103730007B6805225A727B6ADA8A7B685A817B6AC7
:103740009A8B7B689A817B6808229A737B683822FF
:10375000DA733B6807221A723B6805225A727B6A49
:103760001A7A3B689A727B6ADA7A3B68DA7297F95E
:10377000173018461837BD4680BD80B588B002AFF7
:10378000F860B9607A603B600023FB757B6A019347
:103790003B6A00933B687A68B968F868FFF78EFE69
:1037A0000346FB7597F91730002B21D17B680F2258
:1037B0009A717B680D225A727B6A5A8A7B685A8199
:1037C0007B6A1A8B7B689A817B6808229A737B6874
:1037D000B822DA733B680F221A723B680D225A72C4
:1037E0007B6A9A793B689A727B6A5A7A3B68DA728A
:1037F00097F9173018461837BD4680BD80B588B098
:1038000002AFF860B9607A603B600023FB757B6AA9
:1038100001933B6A00933B687A68B968F868FFF7E0
:103820004DFE0346FB7597F91730002B05D1BB6899
:1038300002229A723B683B225A7497F91730184655
:103840001837BD4680BD80B588B002AFF860B9605A
:103850007A603B600023FB757B6A01933B6A0093AF
:103860003B687A68B968F868FFF728FE0346FB757D
:1038700097F91730002B05D1BB6802229A723B687A
:103880005B225A7497F9173018461837BD4680BD29
:1038900080B588B002AFF860B9607A603B60002301
:1038A000FB757B6A01933B6A00933B687A68B96851
:1038B000F868FFF703FE0346FB7597F91730002BF6
:1038C0001AD13B6800229A747B6800221A717B68C7
:1038D000B1225A717B680022DA717B68D4221A7295
:1038E0007B684FF4C0621A617B6A93F822203B68C0
:1038F000DA713B6A40221A7197F917301846183767
:10390000BD4680BD80B588B002AFF860B9607A600E
:103910003B600023FB757B6A01933B6A00933B6825
:103920007A68B968F868FFF7E7FE0346FB7597F910
:103930001730002B1AD13B6800229A747B68012251
:103940001A717B6884225A717B680122DA717B6864
:10395000B1221A727B684FF4C0621A617B6A93F8D5
:1039600022203B68DA713B6A40221A7197F91730BE
:1039700018461837BD4680BD80B588B002AFF860E4
:10398000B9607A603B600023FB757B6A01933B6AF8
:1039900000933B687A68B968F868FFF7EEFE034663
:1039A000FB7597F91730002B1AD13B6800229A74E7
:1039B0007B6800221A717B6897225A717B6800220B
:1039C000DA717B68B1221A727B684FF4C0621A61A7
:1039D0007B6A93F822203B68DA713B6A40221A71B5
:1039E00097F9173018461837BD4680BD80B588B0A6
:1039F00002AFF860B9607A603B600023FB757B6AB8
:103A000001933B6A00933B687A68B968F868FFF7EE
:103A10003FFF0346FB7597F91730002B06D1BA6AB2
:103A20003968B86800F049FF0346FB7597F917300D
:103A300018461837BD4680BD80B588B002AFF86023
:103A4000B9607A603B600023FB757B6A01933B6A37
:103A500000933B687A68B968F868FFF753FF03463C
:103A6000FB7597F91730002B06D1BA6A3968B86828
:103A700000F023FF0346FB7597F9173018461837F7
:103A8000BD4680BD80B588B002AFF860B9607A608D
:103A90003B600023FB757B6A01933B6A00933B68A4
:103AA0007A68B968F868FFF767FF0346FB7597F90E
:103AB0001730002B06D1BA6A3968B86800F0FDFEED
:103AC0000346FB7597F9173018461837BD4680BD79
:103AD00080B588B002AFF860B9607A603B600023BF
:103AE000FB757B6A01933B6A00933B687A68B9680F
:103AF000F868FFF7E3FC0346FB7597F91730002BD6
:103B000016D13B6800229A747B6800221A717B6888
:103B1000B1225A717B680022DA717B68D4221A7252
:103B20007B6A93F822203B68DA713B6A10221A7193
:103B300097F9173018461837BD4680BD80B588B054
:103B400002AFF860B9607A603B600023FB757B6A66
:103B500001933B6A00933B687A68B968F868FFF79D
:103B6000ADFC0346FB7597F91730002B02D13B6A79
:103B700001225A7097F9173018461837BD4680BD94
:103B800080B485B000AF78607B68FB60FB68012281
:103B900083F82820FB68022283F82920FB680A2288
:103BA00083F82A20FB684FF4E6625A6200BF14379C
:103BB000BD465DF8047B704780B485B000AF786087
:103BC0000B46FB707B68FB60FB682C33BB60BB68FB
:103BD000FA781A70BB6800225A70BB6802229A7089
:103BE000BB680022DA70BB68FA781A71BB680022E1
:103BF0005A71BB6802229A71BB680022DA7100BF59
:103C00001437BD465DF8047B7047000080B487B070
:103C100000AF78600023FB757B683B613B692C3308
:103C2000FB603B6993F8CC3103F0F003002B0CD11F
:103C3000FB6803221A71FB6800225A71FB6802229A
:103C40009A71FB680022DA7160E0FB685B79FF2BF8
:103C500003D1FB6880225A7105E0FB685B79013370
:103C6000DAB2FB685A71FB689B7983F00203DAB21F
:103C7000FB689A71FB681B79033B052B39D801A2BD
:103C800052F823F09D3C0008F33C0008F33C000888
:103C9000C73C0008D53C0008DD3C00083B6993F8B0
:103CA000C63103F00203002B03DDFB6806221A7104
:103CB00002E0FB6808221A71FB6800225A71FB6857
:103CC0000022DA7122E0FB6800225A71FB680822A8
:103CD0001A711BE0FB6808221A7117E0FB68DB7998
:103CE00083F00103DAB2FB68DA71FB6808221A710B
:103CF0000CE0FB6803221A71FB6800225A71FB6812
:103D000002229A71FB680022DA7100BF97F917301E
:103D100018461C37BD465DF8047B704780B489B0F7
:103D200000AF78600023FB777B68BB61BB692C33F5
:103D30007B61BB6903F5E7733B610023FB730023E1
:103D4000BB7300237B733B695B7803F01F03FB733A
:103D50003B69DB78BB733B691B781B11DBB203F05B
:103D600002037B73BB6993F8CC3103F02003002B73
:103D700017D07B691B79062B05D1FB7B122B10D04A
:103D8000EF23FB770DE07B695B79BA7B9A4201D028
:103D9000EE23FB777B699B797A7B9A4201D0ED23F6
:103DA000FB7797F91F3018462437BD465DF8047B32
:103DB000704780B487B000AF78600023FB757B68E4
:103DC0003B613B692C33FB603B6993F8CC3103F0DA
:103DD000F003002B0CD1FB6803221A70FB68002251
:103DE0005A70FB6802229A70FB680022DA703EE08B
:103DF000FB685B78FF2B03D1FB6880225A7005E0DB
:103E0000FB685B780133DAB2FB685A70FB689B7819
:103E100083F00203DAB2FB689A70FB681B78032B0D
:103E200002D0042B0ED015E0FB68DB7883F0010391
:103E3000DAB2FB68DA70FB6801225A70FB68042270
:103E40001A7014E0FB68DB7883F00103DAB2FB68D8
:103E5000DA700CE0FB6803221A70FB6800225A70CB
:103E6000FB6802229A70FB680022DA7000BF97F9A3
:103E7000173018461C37BD465DF8047B704780B488
:103E800083B000AF786039607B681A7C3B681A7039
:103E90003B6801337A68527C1A703B6802337A6857
:103EA000927C1A703B6803337A68D27C1A703B6844
:103EB00004337A68127D1A703B6805337A68527D44
:103EC0001A703B6806337A68927D1A703B68073334
:103ED0007A68D27D1A703B6808337A68127E1A704D
:103EE0003B6809337A68527E1A703B680A337A68F5
:103EF000927E1A703B680B337A68D27E1A703B68E8
:103F00000C337A68127F1A703B680D337A68527FDF
:103F10001A703B680E337A68927F1A703B680F33D1
:103F20007A68D27F1A703B6810337A6892F8202042
:103F30001A703B6811337A6892F821201A703B6836
:103F400012337A6892F822201A703B6813337A6829
:103F500092F823201A703B6814337A6892F8242070
:103F60001A703B6815337A6892F825201A703B68FE
:103F700016337A6892F826201A703B6817337A68ED
:103F800092F827201A703B6818337A6892F8282034
:103F90001A703B6819337A6892F829201A703B68C6
:103FA0001A337A6892F82A201A703B681B337A68B1
:103FB00092F82B201A703B681C337A6892F82C20F8
:103FC0001A703B681D337A6892F82D201A703B688E
:103FD0001E337A6892F82E201A703B681F337A6875
:103FE00092F82F201A7000BF0C37BD465DF8047B95
:103FF000704780B485B000AF03463A60FB800B4643
:10400000BB800023FB810023BB81FB88BB81002395
:10401000FB810EE0BA88FB89D31A013B3A6813444E
:10402000BA89D2B21A70BB891B0ABB81FB890133E2
:10403000FB81FA89BB889A42ECD300BF1437BD4696
:104040005DF8047B704780B485B000AF03463960EB
:10405000FB800023FB810AE0FB891B021AB23B684C
:10406000591C39601B781BB213431BB2FB81FB88C0
:104070005A1EFA80002BEFD1FB8918461437BD4633
:104080005DF8047B704780B485B000AF03463A60AA
:10409000FB800B46BB800023FB810023BB81FB8898
:1040A000BB810023FB810FE0BA88FB89D31A013B57
:1040B0003A681344BA89D2B21A70B7F90C301B129D
:1040C000BB81FB890133FB81FA89BB889A42EBD320
:1040D00000BF1437BD465DF8047B704780B485B0DF
:1040E00000AF03463960FB800023FB813B681B78EF
:1040F0005BB2002B0EDA4FF6FF73FB810AE0B7F9D3
:104100000E301B021AB23B68591C39601B781BB277
:104110001343FB81FB885A1EFA80002BEFD1B7F9BD
:104120000E3018461437BD465DF8047B704780B4E6
:1041300087B000AFF8600B467A607B810023FB827A
:1041400000233B61FB683B610023FB820EE07A8920
:10415000FB8AD31A013B7A6813443A69D2B21A70C7
:104160003B691B0A3B61FB8A0133FB82FA8A7B892C
:104170009A42ECD300BF1C37BD465DF8047B704704
:1041800080B485B000AF03463960FB800023FB603C
:1041900007E0FB681A023B68591C39601B7813431F
:1041A000FB60FB885A1EFA80002BF2D1FB68184690
:1041B0001437BD465DF8047B704780B485B000AF0E
:1041C00003463960FB800023FB603B681B785BB2D1
:1041D000002B0BDA4FF0FF33FB6007E0FB681A029D
:1041E0003B68591C39601B781343FB60FB885A1EDF
:1041F000FA80002BF2D1FB6818461437BD465DF8F3
:10420000047B704780B586B000AF03460A46FB804A
:1042100013467B7100237B610023FB740023FB604A
:10422000FB88184600F025FC78617B79184600F081
:1042300034FC0346FB747A691346DB0013441B020B
:10424000FB60FB689B09FB60FA7CFB6802FB03F3E5
:10425000FB60FB689B09FB60FB6818461837BD468E
:1042600080BD000080B489B000AFF86008461146F8
:104270001A4603467B810B463B811346FB710023A4
:104280007B610023FB8300233B610023BB8300236E
:104290007B83FB681B01234A82FB03129211DB170D
:1042A000D31A3B61B7F90A30002B03DA7B895B42F2
:1042B0009BB2BB83B7F90830002B03DA3B895B4222
:1042C0009BB27B83B7F91C20B7F91A3013445B010A
:1042D0007B617B69134A82FB03129211DB17D31AAD
:1042E0007B617A693B6913447B61FA797B6902FBE4
:1042F00003F37B617B691033002B00DA1F335B1102
:104300007B617B69B3F5803F03DB4FF6FF73FB8373
:1043100001E07B69FB83FB8B18462437BD465DF8C3
:10432000047B7047D34D621080B485B000AF7860D5
:1043300039600023FB607B681A033B685B081A4402
:104340003B68B2FBF3F3FB60FB6818461437BD46CD
:104350005DF8047B704780B584B000AF7860396049
:104360000023FB6000237B8139687868FFF7DCFF5E
:10437000F860F86800F059F803467B817B8918469D
:104380001037BD4680BDF0B587B000AF78603960AA
:1043900000227A614FF000014FF00002C7E90212DB
:1043A0007A6815464FF000063A6811464FF0000251
:1043B00001FB06FE05FB02F07044A5FB0112104450
:1043C0000246C7E90212C7E90212D7E9021211F543
:1043D000006142F10002C7E90212D7E902120B0B99
:1043E00043EA0253140BC7E90234BB687B617B6963
:1043F00018461C37BD46F0BD80B584B000AF0346FB
:104400003960FB800023FB600023BB60FB881846FB
:1044100000F037F8F8603968F868FFF7B4FFB86063
:10442000BB6818461037BD4680BD80B487B000AF6A
:1044300078600023FB8200233B610023FB817B68C3
:10444000002B17D07B68013B3B6105E03B695B08B3
:104450003B61FB890133FB813B6923F0FF03002BA8
:10446000F4D1FB891B029AB23B699BB2DBB29BB2CF
:104470001344FB82FB8A18461C37BD465DF8047B5B
:10448000704780B485B000AF0346FB800023FB601B
:10449000FB88DBB2FA88120A92B293400133FB60C8
:1044A000FB6818461437BD465DF8047B704780B53D
:1044B00088B000AFF860B9607A607B800023FB773A
:1044C00000237B610023BB6100237B827B88002B60
:1044D00002D1F123FB775DE0FB6A9A797B88114674
:1044E0001846FFF78FFE78617969F868FFF71CFFBF
:1044F000B861BB69FF2B01D9FF23BB61BB69DAB28D
:10450000BB6ADA717969B868FFF725FF03467B82D9
:104510007B8A1B0A9BB2DAB2FB6A1A707B8ADAB218
:10452000FB6A5A7079697868FFF715FF03467B824A
:104530007B8A1B0A9BB2DAB2FB6A1A717B8ADAB2F7
:10454000FB6A5A71FB6A5A7A7B8811461846FFF754
:1045500059FE78617969B868FFF7FDFE03467B82F2
:104560007B8A1B0A9BB2DAB2FB6A9A707B8ADAB248
:10457000FB6ADA7079697868FFF7EDFE03467B82A3
:104580007B8A1B0A9BB2DAB2FB6ADA717B8ADAB2E7
:10459000FB6A1A7297F91F3018462037BD4680BD56
:1045A00080B483B000AF03463A60FB710B46BB7129
:1045B000FB79072B0AD9BB79DB00DAB2FB79D31A76
:1045C000DBB2713BDAB23B681A700AE0BB79C3F127
:1045D0000F03DBB2DB00DAB2FB791344DAB23B68DB
:1045E0001A7000BF0C37BD465DF8047B704780B47D
:1045F00085B000AF0346B9607A60FB73FB7B1B0993
:10460000DAB27B681A70FB7B03F00F03DAB2BB6887
:104610001A7000BF1437BD465DF8047B704780B444
:1046200083B000AF03463A60FB710B46BB71BB79A8
:104630001B01DAB2FB791344DAB23B681A7000BF8F
:104640000C37BD465DF8047B704780B485B000AF81
:1046500078607B681B78FB737B685B789B005AB241
:1046600097F90F3013435BB2FB737B689B785B0158
:104670005AB297F90F3013435BB2FB737B68DB7858
:104680009B015AB297F90F3013435BB2FB737B68FF
:104690001B79DB015AB297F90F3013435BB2FB73FE
:1046A000FB7B18461437BD465DF8047B704790B419
:1046B00086B000AF78600B46FB70FB7803F0030315
:1046C000DBB23B72FB789B08DBB203F00303DBB287
:1046D0007B72FB785B09DBB203F00103DBB2BB72D8
:1046E000FB789B09DBB203F00103DBB2FB72FB78C2
:1046F000DB09DBB23B730023BB8200237B820023F8
:104700003B820023FB817B681C4607F1080307CB33
:1047100020606160A2601B88A38178681837BD465D
:1047200090BC704780B485B000AF78600B467B804A
:1047300013463B800023FB737B68BB60BB687A88B1
:10474000A3F8B621BB683A88A3F8B82197F90F30CF
:1047500018461437BD465DF8047B704780B485B0B9
:1047600000AF78600B467B8013463B800023FB73D1
:104770007B68BB60BB687A88A3F89021BB683A88E5
:10478000A3F8922197F90F3018461437BD465DF80B
:10479000047B704780B584B000AF78603960002337
:1047A000FB733B68D9883B681B891A467868FFF71A
:1047B000B9FF0346FB7397F90F30002B09D13B6813
:1047C00059893B689B891A467868FFF7C7FF0346FB
:1047D000FB7397F90F3018461037BD4680BD80B483
:1047E00085B000AF78600023FB737B68BB60BB685B
:1047F000032283F8E422BB68002283F8E522BB6829
:10480000002283F8E622BB68002283F8E722BB6817
:10481000002283F8E822BB68002283F8E922BB6803
:10482000002283F8EA22BB680022C3F8EC22BB68AE
:104830000022A3F8F02297F90F3018461437BD462E
:104840005DF8047B704780B485B000AF78600023CA
:10485000FB737B68BB60BB68FF2283F8E622BB6802
:10486000002283F8EA22BB680022C3F8EC22BB686E
:104870000022A3F8F022BB6893F8E832002B05D0A1
:10488000BB6893F8E822BB6883F86321BB6893F8A0
:10489000E932002B05D0BB6893F8E922BB6883F8A6
:1048A0006021BB68002283F88D2197F90F301846EC
:1048B0001437BD465DF8047B704780B487B000AF05
:1048C000F860B9607A600023FB757B6801225A703A
:1048D0007B6800229A70BB688B225A74FB684FF485
:1048E00048421A82FB6802229A7297F917301846DA
:1048F0001C37BD465DF8047B704780B485B000AFBF
:1049000078607B68FB600023FB72FB6893F863218F
:10491000FB6883F8E822FB6893F86021FB6883F862
:10492000E922FB6893F8633103F07F03DAB2FB6896
:1049300083F86321FB6893F8603103F00303DAB274
:10494000FB6893F8E4329B00DBB21344DAB2FB68F5
:1049500083F86021FB68012283F88D21FB6893F8BE
:10496000AE22FB6883F8EA22FB6893F8EA22FB6830
:1049700083F8872197F90B3018461437BD465DF848
:10498000047B704780B487B000AF78607B68FB60C1
:104990000023FB75FB68B3F8DE311A46FB68B3F8F9
:1049A000D63113443B613B69B3F5803F02D34FF6E8
:1049B000FF733B613B691B043B61FB68B3F8D23179
:1049C000002B02D1F123FB7535E0FB68B3F8D2313F
:1049D0001A463B69B3FBF2F33B61FB683A69C3F8E3
:1049E000EC22FB68B3F864311B043B61FB68D3F82D
:1049F000EC32002B02D1F123FB751CE0FB68D3F8ED
:104A0000EC323A69B2FBF3F33B613B69B3F5803FAB
:104A100002D34FF6FF733B613B699AB2FB68A3F880
:104A2000F022FB68B3F8F022FB68A3F89421FB683E
:104A3000022283F88E2197F9173013F10F0F10D14E
:104A4000FB684FF40042A3F8F022FB68B3F8F022B1
:104A5000FB68A3F89421FB68022283F88E210023CF
:104A6000FB7597F9173018461C37BD465DF8047B77
:104A7000704780B485B000AF0346FB800023FB6025
:104A8000FB884FF0804292FBF3F3FB60FB68184613
:104A90001437BD465DF8047B704780B485B000AF25
:104AA0000346FB710023FB73FB790133DBB25B0030
:104AB000FB73FB7B18461437BD465DF8047B7047DB
:104AC00080B485B000AF0346B9607A60FB7397F994
:104AD0000F30002B10DAFB7BDB43DBB203F0070364
:104AE000DBB20833DAB2BB681A70FB7B803BDB10A9
:104AF000DAB27B681A700CE0FB7B03F00703DAB2D2
:104B0000BB681A70FB7BC3F17F03DB10DAB27B68F2
:104B10001A7000BF1437BD465DF8047B704780B53E
:104B200086B000AFF8600B467A607B810023FB758E
:104B30007B890A2B02D86FF0090347E0FB681B78DA
:104B400003F07F03DAB27B681A707B680133FA687E
:104B5000527802F00F02D2B21A707B680233FA6800
:104B6000927802F07F02D2B21A707B680333FA683F
:104B7000D27802F00302D2B21A707B680433FA686A
:104B8000127902F07F02D2B21A70FB68D8887B6873
:104B900005331A460221FFF72CFA7B680733FA68BF
:104BA000127A1A707B680833FA68527A1A707B6836
:104BB0000933FA68927A02F03F02D2B21A707B6827
:104BC0000A33FA68D27A1A7097F9173018461837EC
:104BD000BD4680BD80B586B000AF0346B9607A603F
:104BE000FB810023FB75FB890A2B02D86FF00903B8
:104BF00046E0BB681B7803F07F03DAB27B681A706B
:104C0000BB6801331B7803F00F03DAB27B685A707C
:104C1000BB6802331B7803F07F03DAB27B689A70BB
:104C2000BB6803331B7803F00303DAB27B68DA70E6
:104C3000BB6804331B7803F07F03DAB27B681A7118
:104C4000BB68053319460220FFF7FDF903461A46F3
:104C50007B68DA80BB68DA797B681A72BB681A7A7B
:104C60007B685A72BB6809331B7803F03F03DAB2E2
:104C70007B689A72BB689A7A7B68DA7297F9173008
:104C800018461837BD4680BD80B586B000AF786045
:104C900039600023FB7597F91730002B08D107F115
:104CA0000C020B230121786801F01EF90346FB7505
:104CB00097F91730002B08D107F10C033A68194611
:104CC0000B20FFF787FF0346FB7597F9173018464F
:104CD0001837BD4680BD80B586B000AFF8600B4682
:104CE0007A607B810023FB757B89162B02D86FF0DD
:104CF000090376E0FB681A787B681A707B680133D9
:104D0000FA6852781A707B680233FA6892781A70DF
:104D10007B680333FA68D2781A707B680433FA68C8
:104D200012791A707B680533FA68527902F00F0223
:104D3000D2B21A707B680633FA6892791A707B686F
:104D40000733FA68D27902F03F02D2B21A707B6858
:104D50000833FA68127A02F00302D2B21A70FB68C2
:104D600058897B6809331A460221FFF742F9FB682C
:104D7000B3F90C007B680B331A460221FFF783F965
:104D8000FB68B3F90E007B680D331A460221FFF76A
:104D90007AF9FB68188A7B680F331A460221FFF7FD
:104DA00028F9FB68B3F91230C3F30C0318B27B681F
:104DB00011331A460221FFF766F9FB68B3F91400B4
:104DC0007B6813331A460221FFF75DF9FB68B3F9DC
:104DD00016007B6815331A460221FFF754F997F93C
:104DE000173018461837BD4680BD80B586B000AF75
:104DF0000346B9607A60FB810023FB75FB89162BA3
:104E000002D86FF0090379E0BB681A787B681A70E2
:104E1000BB685A787B685A70BB689A787B689A70CE
:104E2000BB68DA787B68DA70BB681A797B681A71BC
:104E3000BB6805331B7803F00F03DAB27B685A7145
:104E4000BB689A797B689A71BB6807331B7803F05B
:104E50003F03DAB27B68DA71BB6808331B7803F072
:104E60000303DAB27B681A72BB6809331946022061
:104E7000FFF7E9F803461A467B685A81BB680B3393
:104E800019460220FFF72AF903461A467B689A81E1
:104E9000BB680D3319460220FFF720F903461A4676
:104EA0007B68DA81BB680F3319460220FFF7CBF825
:104EB00003461A467B681A82BB68113319460220E2
:104EC000FFF70CF90346C3F30C031AB27B685A824E
:104ED000BB68133319460220FFF700F903461A4650
:104EE0007B689A82BB68153319460220FFF7F6F8F3
:104EF00003461A467B68DA8297F917301846183746
:104F0000BD4680BD80B588B000AF786039600023B1
:104F1000FB7797F91F30002B08D107F10802172300
:104F20000D21786800F0E0FF0346FB7797F91F300A
:104F3000002B08D107F108033A6819461720FFF73C
:104F400054FF0346FB7797F91F3018462037BD46BC
:104F500080BD80B586B000AFF8600B467A607B817B
:104F60000023FB757B891F2B02D86FF00903CFE06C
:104F7000FB681B887A6802211846FFF73AF87B68BD
:104F80000233FA68927802F00102D2B21A707B689A
:104F90000333FA68D27802F00F02D2B21A707B683B
:104FA0000433FA68127902F00F02D2B21A707B68E9
:104FB0000533FA68527902F01F02D2B21A707B6888
:104FC0000633FA68927902F07F02D2B21A707B68D7
:104FD0000733FA68D27902F07F02D2B21A707B6886
:104FE0000833FA68127A02F00102D2B21A707B68B2
:104FF0000933FA68527A1A707B680A33FA68927A2F
:1050000002F00102D2B21A707B680B33FA68D27ACE
:1050100002F00302D2B21A707B680C33FA68127B7A
:1050200002F01F02D2B21A707B680D33FA68527B0D
:1050300002F00302D2B21A707B680E33FA68927BD8
:1050400002F00302D2B21A707B680F33FA68D27B87
:1050500002F00702D2B21A707B681033FA68127C31
:1050600002F01F02D2B21A707B681133FA68527CC8
:1050700002F00102D2B21A707B681233FA68927C95
:105080001A707B681333FA68D27C1A707B68143309
:10509000FA68127D1A707B681533FA68527D1A70AF
:1050A0007B681633FA68927D1A707B681733FA684A
:1050B000D27D1A70FB68188B7B6818331A46022160
:1050C000FEF797FF7B681A33FA68927E1A707B6846
:1050D0001B33FA68D27E1A707B681C33FA68127F21
:1050E00002F00F02D2B21A707B681D33FA68527F49
:1050F0001A707B681E33FA68927F02F00F02D2B2F8
:105100001A707B681F33FA68D27F1A7097F91730CC
:1051100018461837BD4680BD80B586B000AFF86030
:105120000B467A607B810023FB757B89152B02D8A7
:105130006FF0090370E0FB681A787B681A707B686F
:105140000133FA6852781A707B680233FA689278F1
:105150001A707B680333FA68D27802F07F02D2B209
:105160001A70FB689B88C3F30B0398B27B68043307
:105170001A460221FEF73DFF7B680633FA689279F2
:1051800002F07F02D2B21A707B680733FA68D279D4
:105190001A707B680833FA68127A1A707B680933D0
:1051A000FA68527A02F00102D2B21A707B680B33AD
:1051B000FA68927A02F00702D2B21A70FB689889F4
:1051C0007B680C331A460221FEF713FFFB68D8896F
:1051D0007B680E331A460221FEF70BFFFB68188A24
:1051E0007B6810331A460221FEF703FF7B681233F7
:1051F000FA68927C1A707B681333FA68D27C1A7052
:105200007B681433FA68127D1A707B681533FA686C
:10521000527D1A7097F9173018461837BD4680BD71
:1052200080B586B000AFF8600B467A607B810023C2
:10523000FB757B89162B02D86FF009036EE0FB68C3
:105240001B7803F00F03DAB27B681A707B680133B6
:10525000FA6852781A707B680233FA68927802F022
:105260000F02D2B21A707B680333FA68D2781A70D0
:105270007B680433FA68127902F00F02D2B21A7016
:105280007B680533FA6852791A707B680633FA68CE
:10529000927902F03F02D2B21A707B680733FA6843
:1052A000D27902F00F02D2B21A707B680833FA6822
:1052B000127A1A707B680933FA68527A02F03F0258
:1052C000D2B21A70FB6858897B680A331A460221E9
:1052D000FEF78FFEFB6898897B680C331A46022123
:1052E000FEF787FE7B680E33FA68927B1A707B6844
:1052F0000F33FA68D27B1A70FB6818697B68123327
:105300001A460421FEF713FF7B681633FA68127DF4
:1053100002F00102D2B21A7097F917301846183706
:10532000BD4680BD80B586B000AFF8600B467A60A0
:105330007B810023FB757B89112B02D86FF0090359
:1053400071E0FB681B7803F00303DAB27B681A7024
:10535000FB6858887B6801331A460221FEF749FE34
:10536000FB6898887B6803331A460221FEF741FEEA
:105370007B680533FA68927902F00102D2B21A70A2
:105380007B680633FA68D27902F00702D2B21A704B
:105390007B680733FA68127A1A707B680833FA68F8
:1053A000527A1A707B680933FA68927A02F07F02A7
:1053B000D2B21A707B680A33FA68D27A02F07F029E
:1053C000D2B21A707B680B33FA68127B02F00302C8
:1053D000D2B21A707B680C33FA68527B02F0030277
:1053E000D2B21A707B680D33FA68927B02F00F021A
:1053F000D2B21A707B680E33FA68D27B1A707B685F
:105400000F33FA68127C1A707B681033FA68527C8A
:105410001A707B681133FA68927C02F00302D2B2F0
:105420001A7097F9173018461837BD4680BD80B4FA
:1054300087B000AFF8600B467A607B810023FB7574
:105440007B89042B02D86FF0090325E0FB681B78E9
:1054500003F00103DAB27B681A707B680133FA68E3
:10546000527802F00102D2B21A707B680233FA68F5
:10547000927802F00102D2B21A707B680333FA68A4
:10548000D27802F00302D2B21A707B680433FA6851
:1054900012791A7097F9173018461C37BD465DF817
:1054A000047B704780B584B000AF7860396000231A
:1054B000FB7397F90F30002B08D107F108031A4648
:1054C00005213868FFF7B3FF0346FB7397F90F30E8
:1054D000002B08D107F1080205238321786800F02A
:1054E000CDFC0346FB7397F90F3018461037BD46C5
:1054F00080BD80B586B000AF0346B9607A60FB819D
:105500000023FB75FB892B2B02D86FF00903E2E027
:10551000BB681B7803F03F03DAB27B681A70BB6884
:105520005A787B685A70BB6802331B7803F00F030C
:10553000DAB27B689A70BB68DA787B68DA70BB682D
:10554000043319460220FEF77EFD03461A467B68A7
:105550009A80BB68063319460220FEF774FD0346A5
:105560001A467B68DA80BB68083319460220FEF7CA
:105570006AFD03461A467B681A81BB680A331946DE
:105580000220FEF760FD03461A467B685A81BB681D
:105590000C3319460220FEF756FD03461A467B6877
:1055A0009A81BB680E3319460220FEF74CFD034674
:1055B0001A467B68DA81BB68103319460220FEF771
:1055C00042FD03461A467B681A82BB6812331946AD
:1055D0000220FEF738FD03461A467B685A82BB68F4
:1055E000143319460220FEF72EFD03461A467B6847
:1055F0009A82BB68163319460220FEF724FD034643
:105600001A467B68DA82BB68183319460220FEF717
:105610001AFD03461A467B681A83BB681A3319467B
:105620000220FEF710FD03461A467B685A83BB68CA
:105630001C3319460220FEF706FD03461A467B6816
:105640009A83BB681E3319460220FEF7FCFC034612
:105650001A467B68DA83BB68203319460220FEF7BE
:10566000F2FC03461A467B681A84BB68223319464B
:105670000220FEF7E8FC03461A467B685A84BB68A2
:10568000243319460220FEF7DEFC03461A467B68E7
:105690009A84BB68263319460220FEF7D4FC0346E1
:1056A0001A467B68DA84BB68283319460220FEF765
:1056B000CAFC03461A467B681A85BB6893F82A2001
:1056C0007B6883F82A20BB6893F82B207B6883F8DB
:1056D0002B2097F9173018461837BD4680BD80B586
:1056E00086B000AF0346B9607A60FB810023FB758A
:1056F000FB89202B02D86FF009034DE0B968042024
:10570000FEF73EFD02467B681A60BB68043319460B
:105710000420FEF735FD02467B685A60BB680833FB
:1057200019460420FEF749FD02467B689A60BB6873
:105730000C3319460420FEF723FD02467B68DA602D
:10574000BB68103319460420FEF71AFD02467B6839
:105750001A61BB68143319460420FEF711FD024696
:105760007B685A61BB68183319460420FEF725FD93
:1057700002467B689A61BB681C3319460420FEF719
:10578000FFFC02467B68DA61BB6893F820207B68E7
:1057900083F8202097F9173018461837BD4680BD8A
:1057A00080B586B000AF0346B9607A60FB81002304
:1057B000FB75FB89372B02D86FF009035EE1B968EE
:1057C0000220FEF740FC03461A467B681A80BB683D
:1057D00002331B7803F07F03DAB27B689A70BB68F0
:1057E00003331B7803F03F03DAB27B68DA70BB68DF
:1057F00004331B7803F00303DAB27B681A71BB68C9
:1058000005331B7803F00103DAB27B685A71BB6879
:1058100006331B7803F03F03DAB27B689A71BB68EA
:1058200007331B7803F03F03DAB27B68DA71BB6899
:10583000083319460220FEF706FC0346C3F30903AA
:105840009AB27B681A81BB680A331B7803F00303A2
:10585000DAB27B689A72BB680B331B7803F00303E0
:10586000DAB27B68DA72BB680C331B7803F00F0383
:10587000DAB27B681A73BB680D331B7803F0070339
:10588000DAB27B685A73BB680E331B7803F00103EE
:10589000DAB27B689A73BB680F331B7803F003039B
:1058A000DAB27B68DA73BB681A7C7B681A74BB68EF
:1058B0005A7C7B685A74BB68123319460220FEF783
:1058C000C2FB0346C3F30B039AB27B685A82BB68E0
:1058D000163319460220FEF7B6FB03461A467B68CC
:1058E0009A82BB68183319460220FEF7ACFB0346C8
:1058F0001A467B68DA82BB681A331B7803F001030F
:10590000DAB27B681A76BB681B331B7803F0070397
:10591000DAB27B685A76BB681A7F7B689A76BB6876
:105920005A7F7B68DA76BB681E331B7803F07F03EF
:10593000DAB27B681A77BB681F331B7803F07F03EA
:10594000DAB27B685A77BB6820331B7803F0030315
:10595000DAB27B689A77BB6821331B7803F00F03B8
:10596000DAB27B68DA77BB6893F822207B6883F829
:105970002020BB6893F823207B6883F82120BB6834
:1059800093F824207B6883F82220BB6825331B789A
:1059900003F00103DAB27B6883F82320BB68263367
:1059A0001B7803F00303DAB27B6883F82420BB681A
:1059B00027331B7803F01F03DAB27B6883F82520B6
:1059C000BB6828331B7803F01F03DAB27B6883F8C7
:1059D0002620BB6829331B7803F01F03DAB27B68EB
:1059E00083F82720BB682A331B7803F00103DAB25F
:1059F0007B6883F82820BB682B331B7803F00103F6
:105A0000DAB27B6883F82920BB682C331B7803F05B
:105A10000303DAB27B6883F82A20BB682D331B7836
:105A200003F03F03DAB27B6883F82B20BB682E3388
:105A300019460420FEF7A4FB0346C3F311027B685A
:105A4000DA62BB68323319460420FEF799FB02463E
:105A50007B681A63BB6836331B7803F00103DAB244
:105A60007B6883F83420BB6837331B7803F001036D
:105A7000DAB27B6883F8352097F917301846183763
:105A8000BD4680BD80B586B000AF0346B9607A6080
:105A9000FB810023FB75FB89302B02D86FF00903D3
:105AA00012E1BB681A787B681A70BB685A787B6809
:105AB0005A70BB689A787B689A70BB680333194642
:105AC0000220FEF7C0FA03461A467B689A80BB683C
:105AD00005331B7803F07F03DAB27B689A71BB68E9
